:102D0100083B010204081020408001380001350011
:102D1100013700013601013A01C184C186C185C173
:102D210087C188C109C102C18AC101C100C10301B2
:102D310039010245000002430001022C0000072E68
:102D4100141B1004070211022200000124000225B5
:102D51000000012700012800012900012A00012BA0
:012D61000071
:10295400AE43AF447C007D0A1226C77D0A7C001278
:1029640026C7AA04AB057510017511082212263377
:10297400FFE50D5407243BF8E65FFF90000275F075
:1029840006E50D12275FE50C75F006A42583F58393
:1029940022AE43AF447C007D641226C7AA06AB076F
:1029A4002275F00A84E5F0FB7A00751001751110A8
:1029B4007D022290000275F00602275F90000375E5
:1029C400F00602275F753778753603753A01D2072A
:1029D4002290000475F00602275F7F107E270232E2
:1029E400CD753605753A0122753602753A0175437F
:1029F400007544012290000575F00602275FE53456
:102A040075F00A84FB7A0022E50CF0A3E50DF0AE24
:102A14000C780322753601753A01227B1B7D06E48E
:102A2400FF227B1C7D067F12227B1D7D067F5A229E
:103465001234CE7FC87E001232CD1234BD1224AF85
:0834750012338D1233B080F513
:0E34CE00D2B2758901758CF8758A2F0234AA66
:1032CD00E4FDFCEF2403FBE43EFAC3ED9BEC9A50C6
:1032DD0015E4FBFA0BBB00010AEB64664A70F50DB1
:0632ED00BD00010C80DDB4
:0132F30022B8
:1034BD00D2AFD2A9D28C122A341233D27F810230EC
:0134CD00BF3F
:102F6A00E4FFFE90000075F006EF12275FEE1229CB
:102F7A008CE4F0A3F0EF1229B7EE12298CE4F0EFFB
:102F8A001229C0EE12298CE4F0EF1229D5EE12298B
:102F9A008CE4F0EF1229F9EE12298CE4F00FBF004D
:082FAA00010EBE01BEBF2DBBEC
:012FB20022FC
:102D7A001234AAE4FF122BFAE4F50CF50D900000C8
:102D8A00122982122A0CCEC313CE13D8F9F5828ED9
:102D9A0083122971EFF0050DE50D7002050CB400E0
:102DAA00DCE50CB401D71234AA7F01122BFA750C98
:102DBA0001750D00900000122982122A0CCEC3134D
:102DCA00CE13D8F924E0F58274FF3EF583122971F7
:102DDA00EFF0050DE50D7002050CB42DD7E50CB426
:022DEA0001D214
:012DEC0022C4
:102AD600308309E4F524F522F5238020E524701CD3
:102AE6000523E52370020522D39428E522940040AD
:102AF6000BE4F522F523752401753801308609E4C7
:102B0600F527F525F5268020E527701C0526E52600
:102B160070020525D39428E5259400400BE4F5259D
:102B2600F526752701753802308407E4F529F5285E
:102B36008016E52970120528E528D394284009E473
:102B4600F528752901753803308506E4F52BF52A35
:102B560022E52B7012052AE52AD394284009E4F5CC
:072B66002A752B01753804EC
:012B6D002245
:1024AF00E53824FE700302253E14700302257214D2
:1024BF0070030225D324036003022632E53624FE7F
:1024CF0060121460291460561460592404600302CA
:1024DF0026298050300A0CE539C39404500512297F
:1024EF00E580031229CCE539640470408028E53972
:1024FF0024FE601214601714601C2403702E12291E
:10250F00E5D2090226291229E5D20002262912292D
:10251F00E5D2030226291229E5D201022629122A21
:10252F0018022629753602753A01D205022629E5C9
:10253F003624FE601514601A24FE601D24047020DA
:10254F00753604753A01D2088016122A18753901AA
:10255F00800E1229ECD20A80031229ECC201D20597
:10256F00022629E53624FE600B14601224027052F5
:10257F00D202804ED53903753905D2058044E5392D
:10258F0024FE600824FD601C24047036E5441544C5
:10259F0070021543E5444543700675430175442C9D
:1025AF00D207801E74FE2544F54474FF3543F5436E
:1025BF00E544B4FF0BE543B4FF0675430175442BA7
:1025CF00D2078056E53624FD601104704D0539E5BC
:1025DF0039B40603753901D205803FE53924FE6011
:1025EF000824FD601B240470310544E54470020586
:1025FF0043B42D08E543B401031229F2D207801A20
:10260F0074022544F544E43543F543E544B42D08FD
:10261F00E543B401031229F2D207752C00752D285A
:04262F00E4F5382274
:1033B0000546E54670020545B46016E545B4EA11D8
:1033C0007F811230BFD204E52E7006E5307002D244
:0233D0000622D3
:03000B0002303F81
:10303F00C0E0C0D0C28DC28C122AD6E52D452C60BF
:10304F000CE52D152D7002152CC2B28002D2B2E5FF
:10305F003560061535C2C48002D2C4E53760061547
:10306F0037C2C18002D2C1758CF8758A2FD28CD02D
:04307F00D0D0E0329B
:1022DA00E53A6074E4F53A1233D27B08E4FD7F12E2
:1022EA001230837B09E4FD7F241230837B0AE4FDEC
:1022FA007F361230837B0BE4FD7F481230837B0CE0
:10230A00E4FD7F5A12308312237A1224A4122A027D
:10231A0012296A122496E5F0FB7A0012296A12241D
:10232A000D12247E7B0D7D06E4FF1230837B0E7D29
:10233A00067F121230837B0F7D067F5A1230837B11
:10234A00107D067F6C123083300408C20412237A8F
:10235A001224A4300619C206122A0212296A122469
:10236A0096E5F0FB7A0012296A12240D12247E22C5
:10237A00E53075F00A84FB7A007510017511107D3D
:10238A00027F19122E52E53075F00A84E5F0FB7AC5
:10239A00007510017511107D027F21122E527B3AB1
:1023AA007D027F28122FB3E52F75F00A84FB7A008D
:1023BA007510017511107D027F31122E52E52F75AD
:1023CA00F00A84E5F0FB7A007510017511107D02A0
:1023DA007F39122E527B3A7D027F40122FB3E52EAF
:1023EA0075F00A84FB7A007510017511107D027F61
:1023FA0049122E52E52E75F00A84E5F0FB7A007533
:10240A001001227D047F13122E527B2D7D047F1C26
:10241A00122FB3E53275F00A84FB7A007510017544
:10242A00110C7D047F26122E52E53275F00A84E5DE
:10243A00F0FB7A0075100175110C7D047F2F122EA6
:10244A00527B2D7D047F36122FB3E53175F00A8455
:10245A00FB7A0075100175110C7D047F40122E5213
:10246A00E53175F00A84E5F0FB7A00751001751103
:10247A000C7D04227F49122E52E4FB7D047F5A12FE
:10248A003083AB337D047F6C123083227D047F0A54
:10249A00122E52E53475F00A84227511107D027FDE
:0524AA0051122E522228
:10276B00E53A6045E4F53A1233D27B0DE4FD7F2464
:10277B001230837B0EE4FD7F48123083122A1F1226
:10278B003083122A261230837B3C7D067F32122F38
:10279B00B37B3E7D067F44122FB3122A2D1230835A
:1027AB007B1E7D067F6C123083200503022843C2FB
:1027BB0005E539FB7A0012296A7D037F08122E5238
:1027CB007B2E7D037F10122FB3E53924FE60161488
:1027DB00601C14602C14603C2404705C7B11122868
:1027EB00447B1280107B2F1228447B3080077B1395
:1027FB0012284C7B141228547B0812285C7B09800E
:10280B00307B1512284C7B161228547B1712285C30
:10281B007B18801D7B197D037F191230837B1A7DFA
:10282B00037F2B1230837B0A7D037F3D1230837B2A
:10283B000B7D037F4F123083227D037F1912308370
:10284B00227D037F19123083227D037F2B1230836D
:09285B00227D037F3D123083222F
:10286400E53A700302291BE4F53A1233D27B22E4E1
:10287400FD7F091230837B23E4FD7F1B1230837BB1
:1028840024E4FD7F2D1230837B25E4FD7F3F12304D
:10289400837B26E4FD7F511230837B27E4FD7F6335
:1028A4001230837B281229347B2912291C7B2A129B
:1028B40029347B2B12293C7B2C1229441229DE7BE0
:1028C4002D12294C7B2E12291C7B4C12294C7B4F38
:1028D40012293C7B4D1229441229DE7B087D037F9B
:1028E400121230837B097D037F241230837B4A7D5F
:1028F400037F361230837B4B7D037F481230837B0A
:102904004F7D037F5A1230831234AA122A1F1230C9
:1029140083122A26123083227D037F361230837B72
:10292400237D037F5A1230837F107E271232CD22FB
:102934007D037F12123083227D037F36123083227F
:102944007D037F5A123083227D037F12123083224B
:101C2600E53A7003021CBEE4F53A1233D2E53924D4
:101C3600FE6016146023146038146058240470780B
:101C46007B11121FDA7B1280077B2F121FDA7B3083
:101C56007F2D121F937B0980357B13E4FD7F1912BC
:101C660030837B147F2B121F937B09E4FD7F4F800B
:101C7600447B15E4FD7F1B1230837B16E4FD7F2D2C
:101C86001230837B17E4FD7F3F1230837B18E4FD1F
:101C96007F5180217B19E4FD7F1B1230837B1AE480
:101CA600FD7F2D1230837B0AE4FD7F3F1230837B5C
:101CB6000BE4FD7F51123083200703021EF2C20798
:101CC600E53924FE6054147003021D681470030283
:101CD6001D98147003021DFA24046003021EF212FA
:101CE600299512296A7D037F1B122E52122954123E
:101CF6001FE27D641229617D037F2D122E52E54479
:101D06001229B7E54312298CE060047B4980027BE7
:101D16004E7D037F3F123083802A12299512296A4D
:101D26007D037F1B122E52122954121FE27C007D66
:101D3600641229637D037F2D122E527B4E7D037F15
:101D46003F1230837B3C7D037F511230837B3D7F86
:101D560063121F7B121FBD122A2D1230837B1E02B7
:101D66001EEB7B1B7D037F191230837B327D037F45
:101D76002B1230837B137D037F3D1230837B147FD0
:101D86004F121F7B7B427D067F5A1230837B4302B4
:101D96001EEB121FD07B457D067F6C123083122905
:101DA6009512296A7D027F2D122E521229547F36F2
:101DB600121FA21229637F3F121F667F19121EF39C
:101DC6007D047F21122E527F28121F0A7F31121F97
:101DD600217D047F39122E527F40121F387F49120F
:101DE6001F4F7D047F51122E527F987E3A1232CDBC
:101DF6001229E52212299512296A7D02E4FF122E84
:101E0600521229547F09121FA21229637F12121F30
:101E1600667D027F24122E52E5301229A57F2D12EF
:101E26002E527B3A7D027F36122FB3E52F75F00ACC
:101E3600841229AB7F3F122E52E52F1229A57F4827
:101E4600122E527B3A7D027F51122FB3E52E75F08A
:101E56000A841229AB7F5A122E52E52E1229A57F2B
:101E660063121FB012299912296A7D04E4FF121F1A
:101E7600B01229587D047F09122E52E5442401FF31
:101E8600E43543FE7C007D641229637D047F1212D3
:101E96002E52E530122A047510017511107F241296
:101EA6001EF37D047F2D122E527F36121F0A7F3FAE
:101EB600121F217D047F48122E527F51121F387F38
:101EC6005A121F4F7D047F63122E527B407D06E41B
:101ED600FF1230837B417D067F12123083121FBDB5
:101EE600121FD07B457D067F6C123083227D041243
:101EF6002E52E53075F00A84E5F0FB7A0075100184
:101F0600751110227B3A7D04122FB3E52F75F00A66
:101F160084FB7A00751001751110227D04122E5271
:101F2600E52F75F00A84E5F0FB7A0075100175114E
:101F360010227B3A7D04122FB3E52E75F00A84FB3E
:101F46007A00751001751110227D04122E52E52EAD
:101F560075F00A84E5F0FB7A007510017511102200
:101F66007D02122E52E53075F00A84FB7A00751058
:101F760001751110227D031230837B1B7D06E4FF61
:101F86001230837B1C7D067F1212308322E4FD1201
:101F960030837B08E4FD7F3F123083227D02122EC0
:101FA60052AE43AF447C007D6422122E52E5442497
:101FB60001FFE43543FE227B3C7D067F32122FB3C0
:101FC6007B3E7D067F44122FB3227B447D067F5ADB
:101FD60012308322E4FD7F1B123083227D037F248F
:081FE600122E52AE43AF44225B
:101FEE00E53A700302223EE4F53A1233D2E5391493
:101FFE0024FD5008700302217D02223E300246125B
:10200E0022A87B11E4FD7F1B1230837B121222B2B9
:10201E007F3F1222987F511222A07B2112226B7FCA
:10202E004F1222D2753778122A1F123083122A26A7
:10203E00123083122A2D1230837B1E7D067F6C1286
:10204E003083C20222300A4D1222A87F1B12229820
:10205E007F2D1222A07B211222BA7B1B1222C27B61
:10206E0032E4FD7F631230837F2B1222CA7F34123B
:10207E0022CA7B2E7D037F3D122FB31234AA122962
:10208E00DE7B3F7D037F2B1230837F3D1222D212E7
:10209E0029C9C20A223009317B31E4FD7F09123091
:1020AE00837B33E4FD7F1B1230837B341222B27BA1
:1020BE00351222BA7B361222C27B3712226B7B4834
:1020CE0012223F1229CCC2092230005A1234AAAF72
:1020DE0044AE43122DED122D7A7B49E4FD7F2D1275
:1020EE0030837B2FE4FD7F3F1230837B30E4FD7F16
:1020FE005112308312299512296A7D037F32122ED6
:10210E00521229547D037F3B122E52AE43AF447CB4
:10211E00007D641229637D037F44122E521229DE44
:10212E001229CCC200223003467B13E4FD7F191224
:10213E0030837B14E4FD7F2B1230837B08E4FD7F1C
:10214E003D1230837B09E4FD7F4F1230831234AA97
:10215E001229DE7B497D037F2B1230837B137D0397
:10216E007F3D1230837B1412223FD202C203222003
:05217E00010302223EF6
:10218300E4F508F509F50AF50B7B317D037F0912A8
:1021930030837B337D037F1B1230837B347D037F4E
:1021A3002D1230837B357D037F3F1230837B367D59
:1021B300037F511230837B377D037F631230837B30
:1021C300447D067F5A1230837B457D067F6C123037
:1021D300831233B020870A1234AA12316B8E0A8F0E
:1021E3000B122AD6E538B4020CE4F538F50AF50BE0
:1021F300122A188010E50B450A60D6E50BF470032C
:10220300E50AF460CCE50B450A6030850A43850B8B
:1022130044E5441229C0E54312298CE52EF0E54438
:102223001229D5E54312298CE52FF0E5441229F94B
:0B223300E54312298CE530F01229C9A8
:10223E00227D037F4F1230837B1B7D06E4FF12301D
:10224E00837B1C7D067F121230837B1D7D067F5A99
:10225E001230837B1E7D067F6C12308322E4FD7F5D
:10226E00631230831234AA7F107E271232CD7B3C4C
:10227E007D037F191230837B3D7D037F2B123083CC
:10228E007B3F7D037F3D123083227B1FE4FD1230A6
:10229E0083227B20E4FD123083227B31E4FD7F0913
:1022AE0012308322E4FD7F2D12308322E4FD7F3F26
:1022BE0012308322E4FD7F51123083227B2E7D0368
:0C22CE00122FB3227B487D0312308322C4
:10338D00E53624FE601014601014601014601024D3
:10339D0004700F0222DA02276B021C260228641227
:0333AD001FEE22EE
:10000E000000000000000000002F000000000700AC
:10001E00070000147F147F1400242A7F2A12006226
:10002E0064081323003649552250000005030000D2
:10003E0000001C224100000041221C000014083E5A
:10004E0008140008083E0808000000A06000000820
:10005E000808080800006060000000201008040274
:10006E00003E5149453E0000427F40000042615132
:10007E004946002141454B31001814127F100027CC
:10008E0045454539003C4A4949300001710905038F
:10009E0000364949493600064949291E00003636C0
:1000AE000000000056360000000814224100001423
:1000BE001414141400004122140800020151090600
:1000CE0000324959513E007C1211127C007F494981
:1000DE004936003E41414122007F4141221C007FB2
:1000EE0049494941007F09090901003E4149497AC0
:1000FE00007F0808087F0000417F4100002040413A
:10010E003F01007F08142241007F40404040007FA5
:10011E00020C027F007F0408107F003E4141413EE9
:10012E00007F09090906003E4151215E007F091931
:10013E0029460046494949310001017F0101003F2E
:10014E004040403F001F2040201F003F4038403FAE
:10015E000063140814630007087008070061514912
:10016E00454300007F41410000552A552A550000A5
:10017E0041417F0000040201020400404040404023
:10018E00000001020400002054545478007F4844BB
:10019E00443800384444442000384444487F0038F2
:1001AE005454541800087E0901020018A4A4A47C1B
:1001BE00007F080404780000447D400000408084E5
:1001CE007D00007F102844000000417F4000007C2D
:1001DE0004180478007C0804047800384444443839
:1001EE0000FC242424180018242418FC007C080485
:1001FE00040800485454542000043F444020003C5E
:10020E004040207C001C2040201C003C4030403CE4
:10021E00004428102844001CA0A0A07C0044645474
:10022E004C441414141414140000000000000000B8
:10023E000000000000000000000000F800000000B8
:10024E00000000333000000000100C06100C0600F9
:10025E00000000000000000040C07840C078400060
:10026E00043F04043F040400007088FC08300000C2
:10027E00001820FF211E0000F008F000E01800001A
:10028E0000211C031E211E0000F0088870000000D3
:10029E001E2123241927211010160E000000000025
:1002AE000000000000000000000000E01804020042
:1002BE00000000071820400000020418E0000000B3
:1002CE000040201807000000404080F080404000B1
:1002DE000202010F01020200000000F00000000007
:1002EE000101011F010101000000000000000000DB
:1002FE0080B0700000000000000000000000000050
:10030E0000010101010101010000000000000000D8
:10031E000030300000000000000000008060180473
:10032E00006018060100000000E010080810E00050
:10033E00000F102020100F00001010F80000000019
:10034E000020203F20200000007008080888700060
:10035E0000302824222130000030088888483000E0
:10036E000018202020110E000000C02010F8000000
:10037E0000070424243F240000F808888808080099
:10038E000019212020110E0000E0108888180000AE
:10039E00000F112020110E0000380808C838080080
:1003AE000000003F00000000007088080888700000
:1003BE00001C222121221C0000E010080810E00081
:1003CE000000312222110F00000000C0C00000000A
:1003DE00000000303000000000000080000000002F
:1003EE000000806000000000000080402010080027
:1003FE0000010204081020004040404040404000F0
:10040E0004040404040404000008102040800000CA
:10041E000020100804020100007048080808F000CF
:10042E000000003036010000C030C828E810E0009F
:10043E000718272423140B000000C038E00000002A
:10044E00203C23020227382008F888888870000094
:10045E00203F202020110E00C03008080808380068
:10046E00071820202010080008F808080810E000DF
:10047E00203F202020100F0008F88888E808100080
:10048E00203F20202320180008F88888E808100054
:10049E00203F200003000000C0300808083800008C
:1004AE0007182020221E020008F808000008F8088D
:1004BE00203F210101213F20000808F80808000014
:1004CE000020203F2020000000000808F808080047
:1004DE00C08080807F00000008F888C028180800BF
:1004EE00203F20012638200008F8080000000000F8
:1004FE00203F20202020300008F8F800F8F80800EF
:10050E00203F003F003F200008F830C00008F808E8
:10051E00203F200007183F00E01008080810E000F8
:10052E000F10202020100F0008F808080808F0000F
:10053E00203F210101010000E01008080810E00032
:10054E000F18242438504F0008F8888888887000C7
:10055E00203F2000030C3020007088080808380067
:10056E000038202121221C00180808F8080818005D
:10057E000000203F2000000008F808000008F808DE
:10058E00001F202020201F000878880000C838088F
:10059E00000007380E010000F80800F80008F80007
:1005AE00033C0700073C03000818688080681808A1
:1005BE0020302C03032C30200838C800C83808001F
:1005CE000000203F2000000010080808C83808006E
:1005DE002038262120201800000000FE0202020012
:1005EE000000007F40404000000C30C000000000C2
:1005FE00000000010638C00000020202FE000000EA
:10060E00004040407F00000000000402020204008F
:10061E0000000000000000000000000000000000CC
:10062E0080808080808080800002020400000000B4
:10063E0000000000000000000000808080800000AC
:10064E000019242222223F2008F80080800000009A
:10065E00003F112020110E0000000080808000005D
:10066E00000E112020201100000000808088F8006C
:10067E00000E112020103F2000008080808000009E
:10068E00001F222222221300008080F08888881802
:10069E000020203F2020000000008080808080000D
:1006AE00006B94949493600008F8008080800000A2
:1006BE00203F210000203F2000809898000000007D
:1006CE000020203F202000000000008098980000AD
:1006DE0000C08080807F000008F8000080808000CD
:1006EE00203F24022D302000000808F800000000F2
:1006FE000020203F202000008080808080808000AD
:10070E00203F20003F20003F80800080808000003E
:10071E00203F210000203F200000808080800000CC
:10072E00001F202020201F008080008080000000FD
:10073E0080FFA12020110E0000000080808080002C
:10074E00000E112020A0FF8080808000808080001D
:10075E0020203F212000010000008080808080004A
:10076E000033242424241900008080E080800000BF
:10077E000000001F2020000080800000008080000C
:10078E00001F202020103F2080808000008080806D
:10079E0000010E30080601008080008000808080FD
:1007AE000F300C030C300F00008080008080800022
:1007BE000020312E0E31200080808000008080804D
:1007CE0080818E70180601000080808080808000FD
:1007DE000021302C2221300000000000807C02021B
:1007EE0000000000003F404000000000FF0000003D
:1007FE0000000000FF0000000002027C80000000EC
:10080E000040403F00000000000601010202040407
:10081E00000000000000000000000000FC445452E4
:10082E007ED20202FE000000000000000000000068
:10083E0000000000000000000020100E01000F0557
:10084E00050611303F00000000000000000000000F
:10085E00000000000000000000808080808080800A
:10086E00804040404040400000000000000000007A
:10087E00000000000000000000000000000000006A
:10088E00000000000000000000000000000000005A
:10089E00000000000000000000000000001010101A
:1008AE00080808080000000000000000000000001A
:1008BE00000000000000000000000804040404040E
:1008CE0004040404060604000000000000000000FA
:1008DE000000000000000000000000000088888872
:1008EE008C444404000000000000000000000000E2
:1008FE0000000000000000000000080808080808BA
:10090E0008080804040C08000000000000000000A5
:10091E0000000000000000000000709010D03808A9
:10092E00788888888C7800000000000000000000A5
:10093E000000000000000000000000070504040491
:10094E000402020C0700000000000000000000007E
:10095E000000000000000000000000008088887881
:10096E008444C48400000000000000000000000069
:10097E00000000000000000000101010100C0B080A
:10098E00080C0B080808080000000000000000001A
:10099E0000000000000000000000404040404044C5
:1009AE004820202020202000000000000000000031
:1009BE000000000000000000000010100C060200F5
:1009CE00000102060C000000000000000000000004
:1009DE0000000000000000000000000018E8884839
:1009EE004404FC0C000000000000000000000000A9
:1009FE0000000000000000000000000007080804CE
:100A0E0004081F00000000000000000000000000AD
:100A1E000000000000000000101010FF1090003FBA
:100A2E0048484444444270000000000000000000AA
:100A3E0000000000000000000444827F010000FF5F
:100A4E004949494949FF000000000000000000002C
:100A5E0000000000000000002030AC63100808F811
:100A6E00090E08F808080000000000000000000051
:100A7E000000000000000000226722129280402138
:100A8E0016081621408080000000000000000000C3
:100A9E000000000000000000202024242424BF6455
:100AAE002434282422202000000000000000000032
:100ABE00000000000000000010080402010D0B09E8
:100ACE0049894939010000000000000000000000C3
:100ADE00000000000000000004C45F54F4545FC422
:100AEE001410FF1010F000000000000000000000C5
:100AFE000000000000000000809595957F55D555AB
:100B0E0020184780403F0000000000000000000059
:100B1E00000000000000000080809E9292929EE0F5
:100B2E00809EB2D2929E8000000000000000000065
:100B3E0000000000000000000808F4949292F100FA
:100B4E0001F2929494F808000000000000000000EA
:100B5E000000000000000000040444C44F4444C4DC
:100B6E0024242FB424040400000000000000000020
:100B7E00000000000000000040442424150C04FE78
:100B8E00040C152424444000000000000000000066
:100B9E0000000000000000000000F8494A4C48F830
:100BAE00484C4A49F8000000000000000000000018
:100BBE00000000000000000010101312121212FFAD
:100BCE00121212121310100000000000000000009C
:100BDE000000000000000000008060F80700042400
:100BEE002425262424240400000000000000000018
:100BFE000000000000000000010000FF000000F9EE
:100C0E004949494949F90000000000000000000070
:100C1E000000000000000000000000FC5454565577
:100C2E00545454FC000000000000000000000000BE
:100C3E000000000000000000403000033941414533
:100C4E005941417300083000000000000000000010
:100C5E0000000000000000001060028C0010925294
:100C6E00321E3252921210000000000000000000EE
:100C7E00000000000000000004047E010021184066
:100C8E00807F0830040931000000000000000000E1
:100C9E000000000000000000101010FF1010F00007
:100CAE0000F8080808F8000000000000000000002E
:100CBE0000000000000000008040300F40807F00E8
:100CCE00007F2020207F00000000000000000000B8
:100CDE0000000000000000001060028C004454541C
:100CEE00547F5454544440000000000000000000A3
:100CFE00000000000000000004047E010000FF154B
:100D0E00151555957F000000000000000000000042
:100D1E000000000000000000100C4424140405061E
:100D2E000404142444140C00000000000000000011
:100D3E000000000000000000004040414141417FA2
:100D4E004141414140400000000000000000000011
:100D5E00000000000000000080828282FE828282FB
:100D6E008282FE828282800000000000000000006D
:100D7E000000000000000000008040300F00000066
:100D8E000000FF0000000000000000000000000056
:100D9E0000000000000000001010F01F10F00040D6
:100DAE00E05847405060C000000000000000000006
:100DBE00000000000000000040221508162100006F
:100DCE00FE42424242FE0000000000000000000011
:100DDE000000000000000000101010FF109004042E
:100DEE000404FC04040404000000000000000000E1
:100DFE0000000000000000000444827F010000009B
:100E0E0040807F0000000000000000000000000095
:100E1E000000000000000000404040404040FF4401
:100E2E0044444444444040000000000000000000E0
:100E3E000000000000000000000000000000FF00A5
:100E4E000002040810000000000000000000000076
:100E5E000000000000000000404424A4948C84FF95
:100E6E00848C94A424444000000000000000000084
:100E7E0000000000000000004040405F4A4A4A4A1D
:100E8E004A4A4A5F40404000000000000000000057
:100E9E00000000000000000020222A2AAA6A3A2E32
:100EAE002929292929202000000000000000000027
:100EBE00000000000000000008040201FF55555517
:100ECE00555555FF00000000000000000000000016
:100EDE0000000000000000000484E45C44C4201004
:100EEE00E82724E4342CE00000000000000000009D
:100EFE00000000000000000002017F10103F806023
:100F0E001F09093F49897F00000000000000000012
:100F1E000000000000000000100C4444444445C68C
:100F2E004444444444140C0000000000000000003F
:100F3E0000000000000000008040201E2040407F86
:100F4E0044444444444040000000000000000000BF
:100F5E000000000000000000404042CC0000FC24D5
:100F6E00A4242222A3620000000000000000000062
:100F7E0000000000000000000040201F20584750D5
:100F8E004845424548504000000000000000000067
:100F9E0000000000000000000000FE0202F212122B
:100FAE0012F20202FE00000000000000000000002D
:100FBE00000000000000000000007F2020272424F5
:100FCE00242720207F000000000000000000000009
:100FDE000000000000000000886423A2A6AAA2BAA6
:100FEE00A4A3A2262AA262000000000000000000B6
:100FFE000000000000000000000000FF4A4A4A4ABC
:10100E004A4A4BF8000000000000000000000000FB
:10101E000000000000000000048484FC848400FEB4
:10102E009292FE9292FE000000000000000000006E
:10103E0000000000000000002060201F101040443F
:10104E0044447F444444400000000000000000007F
:10105E0000000000000000000000C05E525252521C
:10106E005252525EC000000000000000000000005E
:10107E00000000000000000080808F404020100E15
:10108E00101020204F800000000000000000000023
:10109E0000000000000000000000F8080808080921
:1010AE000E080808080800000000000000000000FC
:1010BE00000000000000000080601F000000000023
:1010CE000000000000000000000000000000000012
:1010DE0000000000000000000008884828180FE8F3
:1010EE0008080808080800000000000000000000C2
:1010FE000000000000000000002011090541817F62
:10110E000101050911200000000000000000000090
:10111E00000000000000000000040404040404FCAD
:10112E000404040404040000000000000000000099
:10113E000000000000000000202020202020203F82
:10114E0020202020202020000000000000000000B1
:10115E0000000000000000000010608000FF000092
:10116E0000FF0000C0300000000000000000000082
:10117E00000000000000000040404043407F40401F
:10118E00407F42414040400000000000000000004F
:10119E00000000000000000020202020202020FF62
:1011AE002020202020202000000000000000000051
:1011BE00000000000000000080804020100C0300A2
:1011CE00030C102040808000000000000000000092
:1011DE0000000000000000004030119690909196A3
:1011EE009090981413503000000000000000000092
:1011FE000000000000000000040404040444847E87
:10120E0006050404040404000000000000000000B1
:10121E0000000000000000000000809E929292925A
:10122E009292929E800000000000000000000000DC
:10123E0000000000000000008484444424140C07C5
:10124E000C142444448484000000000000000000BC
:10125E000000000000000000846424242F2424A435
:10126E0024242F2424A464000000000000000000A9
:10127E00000000000000000040422222120A06FF79
:10128E00060A122222424000000000000000000068
:10129E0000000000000000001010D0FF901000426F
:1012AE00E2524AC64240C0000000000000000000AA
:1012BE000000000000000000040300FF0023108C5B
:1012CE004320184780403F0000000000000000004F
:1012DE00000000000000000040442424940C047F11
:1012EE00040C942424444000000000000000000080
:1012FE0000000000000000002022120AFF0A122047
:10130E00120AFF060A122000000000000000000072
:10131E0000000000000000001010D0FF9010001020
:10132E0010D0FFD0101010000000000000000000D0
:10133E000000000000000000040300FF001108047C
:10134E000300FF000304080000000000000000007E
:10135E00000000000000000000FE02020212224205
:10136E008242221A0202000000000000000000006B
:10137E000000000000000000007F40404844424151
:10138E004041424C40404000000000000000000080
:10139E00000000000000000000FC8484FC0088882F
:1013AE004F58245484E400000000000000000000A8
:1013BE000000000000000000003F10103F8042328D
:1013CE000E02023E424272000000000000000000C9
:1013DE00000000000000000080FE8282FE80FE827F
:1013EE0082FE8000F800FF000000000000000000F8
:1013FE000000000000000000403F0020BF403F40C2
:10140E00807F00004F807F00000000000000000081
:10141E00000000000000000000FE225A8620102866
:10142E0024E324281020200000000000000000000B
:10143E00000000000000000000FF040827110D410D
:10144E00817F01050931000000000000000000004E
:10145E0000000000000000004042CC000044545444
:10146E00547F54545444400000000000000000001B
:10147E00000000000000000000007F201000FF159B
:10148E00151555957F0000000000000000000000BB
:10149E000000000000000000404042CC00000000B0
:1014AE0000FF00000000000000000000000000002F
:1014BE0000000000000000000000003F90482018CF
:1014CE000700071820408000000000000000000008
:1014DE00000000000000000010EC27F42CE000F8E3
:1014EE000808FF0808F800000000000000000000D7
:1014FE000000000000000000807F093F89FF20638C
:10150E0021213F212933600000000000000000006F
:10151E000000000000000000101010FF1094E4AF57
:10152E00A4A4A4AFE404000000000000000000002A
:10153E0000000000000000000444827F01884B2A56
:10154E001A0E1A2A4B8880000000000000000000CE
:10155E000000000000000000008060F807404848CE
:10156E00E85F4848484040000000000000000000CE
:10157E000000000000000000010000FF0000020B50
:10158E001222D20A06000000000000000000000037
:10159E0000000000000000000000FC04D45454546D
:1015AE00D4047F84C5360400000000000000000053
:1015BE000000000000000000886601006382829235
:1015CE00AB8482C10224CF000000000000000000A6
:1015DE00000000000000000080809E9292929EE02B
:1015EE00809EB2D2929E800000000000000000009B
:1015FE0000000000000000000808F4949292F10030
:10160E0001F2929494F8080000000000000000001F
:10161E0000000000000000002030AC633000FC240D
:10162E0025262424243C00000000000000000000B9
:10163E00000000000000000022672212523807FF4F
:10164E00097F093F89FF0000000000000000000034
:10165E000000000000000000808080BEA2A2A2A2B6
:10166E00A2A2A2BE80808000000000000000000048
:10167E000000000000000000000000060504040445
:10168E004484443C00000000000000000000000004
:10169E00000000000000000000FC848484FC0010A8
:1016AE0010101010FF1010000000000000000000CD
:1016BE000000000000000000003F1010103F00006E
:1016CE00010640807F0000000000000000000000C6
:1016DE00000000000000000000F8010600F01212E9
:1016EE0012F2020202FE00000000000000000000E4
:1016FE00000000000000000000FF0000001F11119C
:10170E00111F0040807F000000000000000000005C
:10171E00000000000000000080808292929292925F
:10172E00929292FE80808000000000000000000077
:10173E000000000000000000404022241048807F7E
:10174E0004081824224040000000000000000000A1
:10175E000000000000000000000000000001E21C7C
:10176E00E00000000000000000000000000000008B
:10177E000000000000000000804020100C0300005C
:10178E0000030C30408080000000000000000000CC
:10179E000000000000000000100C04242424252664
:1017AE002424242404140C00000000000000000077
:1017BE00000000000000000000818141310F010196
:1017CE00017F818181F10000000000000000000017
:1017DE0000000000000000000000F88888888808DB
:1017EE0008FF08090AC808000000000000000000F9
:1017FE00000000000000000080601F0010201F800D
:10180E00402116182641F8000000000000000000DC
:10181E000000000000000000000000000000FF407B
:10182E00404040404000000000000000000000006A
:10183E0000000000000000004040404040407F405B
:10184E0040404040404040000000000000000000CA
:10185E000000000000000000008060F807404848CB
:10186E00E85F4848484040000000000000000000CB
:10187E000000000000000000010000FF0000020B4D
:10188E001222D20A06000000000000000000000034
:10189E0000000000000000000202FE929292FE0282
:1018AE0006FC040404FC0000000000000000000020
:1018BE00000000000000000008180F080804FF04D4
:1018CE008440271827408000000000000000000020
:1018DE0000000000000000001060020CC000E22CAE
:1018EE00203F2028E600000000000000000000005D
:1018FE00000000000000000004047C030000FF094B
:10190E00090949897F000000000000000000000066
:10191E000000000000000000404042CC0000FF49E3
:10192E0049C949497F800000000000000000000006
:10193E0000000000000000000040201F20405F4813
:10194E0044404142455840000000000000000000A5
:10195E00000000000000000000007C40404040FFFE
:10196E0040404040FC00000000000000000000006D
:10197E000000000000000000007C40404040407F1E
:10198E004040404040FC000000000000000000000D
:10199E0000000000000000000040301E101010FF7C
:1019AE0010101010100000000000000000000000D9
:1019BE00000000000000000081814121110D030193
:1019CE00030D112141818100000000000000000084
:1019DE00000000000000000000FE02FA02FE40209F
:1019EE00D8171010F01010000000000000000000CA
:1019FE0000000000000000008047300F106780409C
:101A0E002116081621408000000000000000000092
:101A1E000000000000000000080808F80808081080
:101A2E0010FF101010F00000000000000000000079
:101A3E0000000000000000001030101F0888483021
:101A4E000E014080403F000000000000000000003A
:101A5E0000000000000000000000E282828282820C
:101A6E00828282FE000000000000000000000000E4
:101A7E00000000000000000000003F4040404040D9
:101A8E004040404040780000000000000000000090
:101A9E00000000000000000090523410FF1034527D
:101AAE0080708F0808F80800000000000000000099
:101ABE000000000000000000829A566322528E0041
:101ACE008040330C33408000000000000000000016
:101ADE000000000000000000202020BEAAAAAAAA32
:101AEE00AAAAAABE202020000000000000000000CC
:101AFE000000000000000000008080AFAAAAAAFF2C
:101B0E00AAAAAAAF8080000000000000000000001A
:101B1E00000000000000000040504E4848FF4848BA
:101B2E004840F80000FF0000000000000000000028
:101B3E00000000000000000000003E0202FF122222
:101B4E001E000F40807F000000000000000000001B
:101B5E000000000000000000008060F80740300F19
:101B6E00F88888888808080000000000000000003F
:101B7E000000000000000000010000FF0000000057
:101B8E00FF08080808080000000000000000000020
:101B9E00000000000000000080808888888888FF90
:101BAE00888888888880800000000000000000007F
:101BBE00000000000000000020201008040201FFB9
:101BCE0001020408102020000000000000000000A8
:101BDE0000000000000000000000000000000000F7
:101BEE0000000000000000000000000000000000E7
:101BFE0000000000000000000000000000000000D7
:101C0E0000000000000000000000000000000000C6
:081C1E000000000000000000BE
:1031D40075F010EBA42CF582E435F0F583E582223A
:1031E40012310AE4FF02310AE511C3138512F0A477
:0F31F400250CFF22AF02E904FD1233F4E4FC22A4
:1032F400E4FDFCEF2403FBE43EFAC3ED9BEC9A509F
:1033040015E4FBFA0BBB00010AEB64664A70F50D89
:06331400BD00010C80DD8C
:01331A002290
:1030F900F583E5822CF582E43583F583E493FF7D3E
:0131090001C4
:10310A00ED6004D2A18002C2A1C2A0E4FEC2A4EF73
:10311A0030E704D2A38002C2A3D2A4EF25E0FF0EB7
:07312A00BE08EAD2A0D2A109
:01313100227B
:1033F400AC07ED24B0FFE4FD12310AEC54F0C454E0
:103404000F4410FF12310AEC540F4401FF02310A39
:1033D200E4FCEC24B0FFE4FD1231E47F1012310A68
:1033E200E4FB7D01E4FF12310A0BBB80F50CBC0843
:0133F200E1F9
:0133F30022B7
:062FB300AA07A905AF0307
:102FB900E4FCEF24E0FBEAD3947F4004E4FA090936
:102FC900AF02AD011233F4E4FC1231D42436F58298
:102FD900E58334021231030CBC08EE1231F81231C8
:102FE900D4243EF582E58334021231030CBC08EE89
:012FF90022B5
:04347D008F15A905F9
:103481007F017E00AD0119ED6009AD157C001226AA
:033491006080F167
:013494002215
:082E52008F0C8D0D8A0E8B0F11
:102E5A00E4F514F512E512C39510504FC3E5109529
:102E6A001214FD7F0A12347DAC0EAD0FCFCDCFCE3A
:102E7A00CCCE1226727C007D0A1226728D13E514BE
:102E8A007018E51014FFE512C39F500EE513700782
:102E9A001231EC7B20800B7514011231ECE51324FE
:0B2EAA0030FBAD0D122FB3051280AA03
:012EB50022FA
:04308300AA07A905EA
:10308700E4F50C1233F4E4FC75F040EBA42426F5C8
:1030970082E5F034081230F9050C0CBC10EA123145
:1030A700F875F040EBA42446F582E5F034081230B9
:0730B700F9050C0CBC10EA46
:0130BE0022EF
:102A3400D2A27F647E001232F4C2A21232F4D2A275
:102A4400E4FD7FAE1231E47F1012310A7F4012316F
:102A54000A7F8112310A7FCF12310A7FA112310A13
:102A64007FC812310A7FA612310A7FA812310A7F69
:102A74003F12310A7FD31231E47FD512310A7F80AD
:102A840012310A7FD912310A7FF112310A7FDA1228
:102A9400310A7F1212310A7FDB12310A7F40123170
:102AA4000A7F2012310A7F0212310A7F8D12310A05
:102AB4007F1412310A7FA412310A7FA612310A7FD1
:102AC400AF12310A7FAF12310A1233D2E4FDFF0292
:022AD40033F4D9
:06344C00C282C280D282A0
:10345200E4FEC280EF139281D280EFC313FF0EBE4F
:0234620008F070
:013464002245
:10349500E4FEC280EFC313FF308103430780D2806F
:0434A5000EBE08EE61
:0134A9002200
:0800030012344CAF0502345227
:0634FE0012344C1234955B
:0135040022A4
:07350500E4FD7F8E020003CC
:0C34DC007D807F8E120003C282C280221D
:02313200AC07E8
:10313400123505E4FB742E2BF8E6FF75F00A84FAC9
:10314400EF75F00A84A6F0EAC454F0FF742E2BF84D
:10315400EF26F6AF04742E2BF8E6FD1200030C0CD8
:073164000BBB07D10234DCB4
:0230BF00AC075C
:1030C100123505E4FDAF041234FE742E2DF8A60767
:1030D1000C0C742E2DF8E6FFC4540FFE742E2DF83F
:1030E100EF540FF6EE75F00AA4FF742E2DF8EF26BB
:0830F100F60DBD07D00234DC2E
:102F1600EF01FFFFFFFF0100030100050100031D94
:102F260000210100041F0000240100041F010025E8
:102F360001000804010000012C003B010006070205
:102F46000000001001000303000701000402010055
:102F5600080100040202000901000305000901003E
:042F6600030D001146
:102D6200096E0100060601000000190A4C01000765
:072D72000C0000000100004D
:10341400E4FCFDFEFB7AE179F578051226FD7C00DB
:0D342400EF22250FF8A607050FE50FC322C4
:10331B00E4F50D902F1612333240F8E4F50D902F93
:06332B001C12333240F8D1
:1033310022E50D93FF1234E8050DE50DC394062235
:10322D00E4F50D902F16123248940640F6E4F50D94
:0A323D00902F50123248940740F61B
:0E32470022E50D93FF1234E8050DE50DC322BC
:10325500E4F547902F16123270940640F6E4F547D0
:0A326500902F57123270940740F6C4
:0E326F0022E54793FF1234E80547E547C322E6
:10334100E4F548902F1612335840F8E4F548902FD1
:063351005E12335840F843
:1033570022E54893FF1234E80548E548C39406225E
:10320300E4F549902F1612321E40F8E4F549902F49
:0B3213006412321E40F87F0C023431C0
:0F321E00E54993FF1234E80549E549C3940622B8
:042DED00AD07AC067C
:102DF100E4F50CF50DEC7850F6ED08F6E4F50E74FB
:102E01004C250EF8E6250DF50DE4350CF50C050EF7
:102E1100E50EB408EAAE0CEE7854F6AF0DEF08F605
:102E2100E4F50EE50E902F1693FF1234E8050EE53A
:102E31000EC3940640EDE4F50E744C250EF8E6FF42
:102E41001234E8050EE50EC3940A40ED7F0C0234FE
:012E5100314F
:102EB600E4F51BF51C7416251CF582742F122F07DA
:102EC6007002051BC39406E51B940040E8E4F51B5D
:102ED600F51C7422251CF582742F122F077002052B
:102EE6001BC39406E51B940040E87F0C123431782E
:102EF60060E6FF08E6F51D123414251DFFEC3EFEC4
:102F060022351BF583E493FF1234E8051CE51C22E9
:022BFA008F0E3C
:102BFC007A007977751000751100751277E4F50F6E
:102C0C00902F16122C74940640F6E50E700CF50FEE
:102C1C00902F28122C74940740F6E50EB40116E49C
:102C2C00F50FE50F902F2F93FF1234E8050FE50FEA
:102C3C00C3940740EDE4F50F1234F37456123426A6
:102C4C00940A40F4E4F50F1234F37477123426949A
:102C5C002040F41234F37860A6071234F37861A69E
:072C6C0007AB10AA11A91229
:0E2C730022E50F93FF1234E8050FE50FC32290
:10327D00E4F50D902F16123298940640F6E4F50DF4
:0A328D00902F36123298940B40F691
:0E32970022E50D93FF1234E8050DE50DC3226C
:1032A500E4F54A902F161232C0940640F6E4F54A2A
:0A32B500902F411232C0940940F638
:0E32BF0022E54A93FF1234E8054AE54AC3228D
:10336700E4F54B902F1612337E40F8E4F54B902F7F
:063377004A12337E40F80B
:10337D0022E54B93FF1234E8054BE54BC39406222F
:042C8100AB05AA07EE
:102C8500E4F519F518F517F5167873A60208A603E5
:102C9500F51A746E251AF8E6FFE4FCFDFEE5192F1A
:102CA500F519EE3518F518ED3517F517EC3516F558
:102CB50016051AE51AB407DAE4FFE518FEE4FDFC8B
:102CC500780812274C7875A607E519FFE408A607CA
:102CD500F51AE51A902F1693FF1234E8051AE51A2E
:102CE500C3940640EDE4F51A746E251AF8E6FF1252
:0B2CF50034E8051AE51AC3940940ED0D
:012D000022B0
:023431008F0FFB
:10343300E4F510E510C3950F500E1234F3745625BE
:0834430010F8A607051080EB4C
:01344B00225E
:022FFA00AC0623
:102FFC00ECF51EEFF51F12303370FB12322D7F0CE7
:10300C0012343112303370FB1232557F0C123431C2
:10301C001233417F0C123431AD1FAF1E122C817F45
:06302C000C1234317F009C
:0D3032002212331B7F0C123431785FE6222E
:10316B0012331B7F0C123431785FE670F312322D61
:10317B007F0C12343112327D7F0C123431785FE6C2
:10318B00701108E6FF08E6F50C123414250CFFEC61
:07319B003EFE227EFF7FFFD4
:0131A200220A
:1031A300C20B12331B7F0C123431785FE670F312BB
:1031B300322D7F0C1234311232A57F0C12343112AE
:1031C30033677F0E123431785FE67002D20BA20BA5
:0131D30022D9
:1034AA0053BAFE759A50438E0475D7D075D6FF432A
:0334BA008E10224F
:0B34E8008F9BE59A30E1FB539AFD2218
:0A34F300E59A30E0FB539AFEAF9B10
:0134FD0022AC
:03000000022B6E62
:0C2B6E00787FE4F6D8FD758196022BB547
:10263300BB010CE58229F582E5833AF583E022505C
:1026430006E92582F8E622BBFE06E92582F8E222A6
:0D265300E58229F582E5833AF583E49322C0
:10266000EF8DF0A4A8F0CF8CF0A428CE8DF0A42E8E
:02267000FE2248
:10267200BC000BBE0029EF8DF084FFADF022E4CC4C
:10268200F875F008EF2FFFEE33FEEC33FCEE9DEC15
:10269200984005FCEE9DFE0FD5F0E9E4CEFD22ED5B
:1026A200F8F5F0EE8420D21CFEADF075F008EF2FA5
:1026B200FFED33FD4007985006D5F0F222C398FD96
:0526C2000FD5F0EA2233
:1026C700C2D5EC30E709B2D5E4C39DFDE49CFCEE2E
:1026D70030E715B2D5E4C39FFFE49EFE122672C30E
:1026E700E49DFDE49CFC800312267230D507C3E409
:0626F7009FFFE49EFE229D
:1026FD00E88FF0A4CC8BF0A42CFCE98EF0A42CFC7C
:10270D008AF0EDA42CFCEA8EF0A4CDA8F08BF0A4F9
:10271D002DCC3825F0FDE98FF0A42CCD35F0FCEB58
:10272D008EF0A4FEA9F0EB8FF0A4CFC5F02ECD391D
:0F273D00FEE43CFCEAA42DCE35F0FDE43CFC228A
:10274C00E8600FECC313FCED13FDEE13FEEF13FF6B
:03275C00D8F1228F
:0C275F00A42582F582E5F03583F5832285
:102B7A00023465E493A3F8E493A34003F68001F2D8
:102B8A0008DFF48029E493A3F85407240CC8C3335C
:102B9A00C4540F4420C8834004F456800146F6DF2B
:102BAA00E4800B0102040810204080902D01E47E8D
:102BBA00019360BCA3FF543F30E509541FFEE49320
:102BCA00A360010ECF54C025E060A840B8E493A3E7
:102BDA00FAE493A3F8E493A3C8C582C8CAC583CA12
:102BEA00F0A3C8C582C8CAC583CADFE9DEE780BECA
:012D79000059
:00000001FF
